{
	"EtherStore.sol": {
		"EtherStore": {
			"abi": [
				{
					"inputs": [
						{
							"internalType": "address",
							"name": "",
							"type": "address"
						}
					],
					"name": "balances",
					"outputs": [
						{
							"internalType": "uint256",
							"name": "",
							"type": "uint256"
						}
					],
					"stateMutability": "view",
					"type": "function"
				},
				{
					"inputs": [],
					"name": "depositFunds",
					"outputs": [],
					"stateMutability": "payable",
					"type": "function"
				},
				{
					"inputs": [
						{
							"internalType": "address",
							"name": "",
							"type": "address"
						}
					],
					"name": "lastWithdrawTime",
					"outputs": [
						{
							"internalType": "uint256",
							"name": "",
							"type": "uint256"
						}
					],
					"stateMutability": "view",
					"type": "function"
				},
				{
					"inputs": [
						{
							"internalType": "uint256",
							"name": "_weiToWithdraw",
							"type": "uint256"
						}
					],
					"name": "withdrawFunds",
					"outputs": [],
					"stateMutability": "nonpayable",
					"type": "function"
				},
				{
					"inputs": [],
					"name": "withdrawalLimit",
					"outputs": [
						{
							"internalType": "uint256",
							"name": "",
							"type": "uint256"
						}
					],
					"stateMutability": "view",
					"type": "function"
				}
			],
			"devdoc": {
				"kind": "dev",
				"methods": {},
				"version": 1
			},
			"evm": {
				"assembly": "    /* \"EtherStore.sol\":60:1070  contract EtherStore {\r... */\n  mstore(0x40, 0x80)\n    /* \"EtherStore.sol\":122:129  1 ether */\n  0x0de0b6b3a7640000\n    /* \"EtherStore.sol\":89:129  uint256 public withdrawalLimit = 1 ether */\n  0x00\n  sstore\n    /* \"EtherStore.sol\":60:1070  contract EtherStore {\r... */\n  callvalue\n  dup1\n  iszero\n  tag_1\n  jumpi\n  0x00\n  dup1\n  revert\ntag_1:\n  pop\n  dataSize(sub_0)\n  dup1\n  dataOffset(sub_0)\n  0x00\n  codecopy\n  0x00\n  return\nstop\n\nsub_0: assembly {\n        /* \"EtherStore.sol\":60:1070  contract EtherStore {\r... */\n      mstore(0x40, 0x80)\n      jumpi(tag_1, lt(calldatasize, 0x04))\n      shr(0xe0, calldataload(0x00))\n      dup1\n      0x1031ec31\n      eq\n      tag_2\n      jumpi\n      dup1\n      0x155dd5ee\n      eq\n      tag_3\n      jumpi\n      dup1\n      0x27e235e3\n      eq\n      tag_4\n      jumpi\n      dup1\n      0x7ddfe78d\n      eq\n      tag_5\n      jumpi\n      dup1\n      0xe2c41dbc\n      eq\n      tag_6\n      jumpi\n    tag_1:\n      0x00\n      dup1\n      revert\n        /* \"EtherStore.sol\":136:187  mapping(address => uint256) public lastWithdrawTime */\n    tag_2:\n      callvalue\n      dup1\n      iszero\n      tag_7\n      jumpi\n      0x00\n      dup1\n      revert\n    tag_7:\n      pop\n      tag_8\n      0x04\n      dup1\n      calldatasize\n      sub\n      0x20\n      dup2\n      lt\n      iszero\n      tag_9\n      jumpi\n      0x00\n      dup1\n      revert\n    tag_9:\n      dup2\n      add\n      swap1\n      dup1\n      dup1\n      calldataload\n      0xffffffffffffffffffffffffffffffffffffffff\n      and\n      swap1\n      0x20\n      add\n      swap1\n      swap3\n      swap2\n      swap1\n      pop\n      pop\n      pop\n      tag_10\n      jump\t// in\n    tag_8:\n      mload(0x40)\n      dup1\n      dup3\n      dup2\n      mstore\n      0x20\n      add\n      swap2\n      pop\n      pop\n      mload(0x40)\n      dup1\n      swap2\n      sub\n      swap1\n      return\n        /* \"EtherStore.sol\":447:1066  function withdrawFunds (uint256 _weiToWithdraw) public {\r... */\n    tag_3:\n      callvalue\n      dup1\n      iszero\n      tag_11\n      jumpi\n      0x00\n      dup1\n      revert\n    tag_11:\n      pop\n      tag_12\n      0x04\n      dup1\n      calldatasize\n      sub\n      0x20\n      dup2\n      lt\n      iszero\n      tag_13\n      jumpi\n      0x00\n      dup1\n      revert\n    tag_13:\n      dup2\n      add\n      swap1\n      dup1\n      dup1\n      calldataload\n      swap1\n      0x20\n      add\n      swap1\n      swap3\n      swap2\n      swap1\n      pop\n      pop\n      pop\n      tag_14\n      jump\t// in\n    tag_12:\n      stop\n        /* \"EtherStore.sol\":194:237  mapping(address => uint256) public balances */\n    tag_4:\n      callvalue\n      dup1\n      iszero\n      tag_15\n      jumpi\n      0x00\n      dup1\n      revert\n    tag_15:\n      pop\n      tag_16\n      0x04\n      dup1\n      calldatasize\n      sub\n      0x20\n      dup2\n      lt\n      iszero\n      tag_17\n      jumpi\n      0x00\n      dup1\n      revert\n    tag_17:\n      dup2\n      add\n      swap1\n      dup1\n      dup1\n      calldataload\n      0xffffffffffffffffffffffffffffffffffffffff\n      and\n      swap1\n      0x20\n      add\n      swap1\n      swap3\n      swap2\n      swap1\n      pop\n      pop\n      pop\n      tag_18\n      jump\t// in\n    tag_16:\n      mload(0x40)\n      dup1\n      dup3\n      dup2\n      mstore\n      0x20\n      add\n      swap2\n      pop\n      pop\n      mload(0x40)\n      dup1\n      swap2\n      sub\n      swap1\n      return\n        /* \"EtherStore.sol\":89:129  uint256 public withdrawalLimit = 1 ether */\n    tag_5:\n      callvalue\n      dup1\n      iszero\n      tag_19\n      jumpi\n      0x00\n      dup1\n      revert\n    tag_19:\n      pop\n      tag_20\n      tag_21\n      jump\t// in\n    tag_20:\n      mload(0x40)\n      dup1\n      dup3\n      dup2\n      mstore\n      0x20\n      add\n      swap2\n      pop\n      pop\n      mload(0x40)\n      dup1\n      swap2\n      sub\n      swap1\n      return\n        /* \"EtherStore.sol\":246:439  function depositFunds() public payable {\r... */\n    tag_6:\n      tag_22\n      tag_23\n      jump\t// in\n    tag_22:\n      stop\n        /* \"EtherStore.sol\":136:187  mapping(address => uint256) public lastWithdrawTime */\n    tag_10:\n      mstore(0x20, 0x01)\n      dup1\n      0x00\n      mstore\n      keccak256(0x00, 0x40)\n      0x00\n      swap2\n      pop\n      swap1\n      pop\n      sload\n      dup2\n      jump\t// out\n        /* \"EtherStore.sol\":447:1066  function withdrawFunds (uint256 _weiToWithdraw) public {\r... */\n    tag_14:\n        /* \"EtherStore.sol\":545:559  _weiToWithdraw */\n      dup1\n        /* \"EtherStore.sol\":521:529  balances */\n      0x02\n        /* \"EtherStore.sol\":521:541  balances[msg.sender] */\n      0x00\n        /* \"EtherStore.sol\":530:540  msg.sender */\n      caller\n        /* \"EtherStore.sol\":521:541  balances[msg.sender] */\n      0xffffffffffffffffffffffffffffffffffffffff\n      and\n      0xffffffffffffffffffffffffffffffffffffffff\n      and\n      dup2\n      mstore\n      0x20\n      add\n      swap1\n      dup2\n      mstore\n      0x20\n      add\n      0x00\n      keccak256\n      sload\n        /* \"EtherStore.sol\":521:559  balances[msg.sender] >= _weiToWithdraw */\n      lt\n      iszero\n        /* \"EtherStore.sol\":513:560  require(balances[msg.sender] >= _weiToWithdraw) */\n      tag_25\n      jumpi\n      0x00\n      dup1\n      revert\n    tag_25:\n        /* \"EtherStore.sol\":630:645  withdrawalLimit */\n      sload(0x00)\n        /* \"EtherStore.sol\":612:626  _weiToWithdraw */\n      dup2\n        /* \"EtherStore.sol\":612:645  _weiToWithdraw <= withdrawalLimit */\n      gt\n      iszero\n        /* \"EtherStore.sol\":604:646  require(_weiToWithdraw <= withdrawalLimit) */\n      tag_26\n      jumpi\n      0x00\n      dup1\n      revert\n    tag_26:\n        /* \"EtherStore.sol\":750:757  1 weeks */\n      0x093a80\n        /* \"EtherStore.sol\":719:735  lastWithdrawTime */\n      0x01\n        /* \"EtherStore.sol\":719:747  lastWithdrawTime[msg.sender] */\n      0x00\n        /* \"EtherStore.sol\":736:746  msg.sender */\n      caller\n        /* \"EtherStore.sol\":719:747  lastWithdrawTime[msg.sender] */\n      0xffffffffffffffffffffffffffffffffffffffff\n      and\n      0xffffffffffffffffffffffffffffffffffffffff\n      and\n      dup2\n      mstore\n      0x20\n      add\n      swap1\n      dup2\n      mstore\n      0x20\n      add\n      0x00\n      keccak256\n      sload\n        /* \"EtherStore.sol\":719:757  lastWithdrawTime[msg.sender] + 1 weeks */\n      add\n        /* \"EtherStore.sol\":712:715  now */\n      timestamp\n        /* \"EtherStore.sol\":712:757  now >= lastWithdrawTime[msg.sender] + 1 weeks */\n      lt\n      iszero\n        /* \"EtherStore.sol\":704:758  require(now >= lastWithdrawTime[msg.sender] + 1 weeks) */\n      tag_27\n      jumpi\n      0x00\n      dup1\n      revert\n    tag_27:\n        /* \"EtherStore.sol\":769:779  msg.sender */\n      caller\n        /* \"EtherStore.sol\":769:784  msg.sender.call */\n      0xffffffffffffffffffffffffffffffffffffffff\n      and\n        /* \"EtherStore.sol\":792:800  balances */\n      0x02\n        /* \"EtherStore.sol\":792:812  balances[msg.sender] */\n      0x00\n        /* \"EtherStore.sol\":801:811  msg.sender */\n      caller\n        /* \"EtherStore.sol\":792:812  balances[msg.sender] */\n      0xffffffffffffffffffffffffffffffffffffffff\n      and\n      0xffffffffffffffffffffffffffffffffffffffff\n      and\n      dup2\n      mstore\n      0x20\n      add\n      swap1\n      dup2\n      mstore\n      0x20\n      add\n      0x00\n      keccak256\n      sload\n        /* \"EtherStore.sol\":769:817  msg.sender.call{value: balances[msg.sender]}(\"\") */\n      mload(0x40)\n      dup1\n      0x00\n      add\n      swap1\n      pop\n      0x00\n      mload(0x40)\n      dup1\n      dup4\n      sub\n      dup2\n      dup6\n      dup8\n      gas\n      call\n      swap3\n      pop\n      pop\n      pop\n      returndatasize\n      dup1\n      0x00\n      dup2\n      eq\n      tag_30\n      jumpi\n      mload(0x40)\n      swap2\n      pop\n      and(add(returndatasize, 0x3f), not(0x1f))\n      dup3\n      add\n      0x40\n      mstore\n      returndatasize\n      dup3\n      mstore\n      returndatasize\n      0x00\n      0x20\n      dup5\n      add\n      returndatacopy\n      jump(tag_29)\n    tag_30:\n      0x60\n      swap2\n      pop\n    tag_29:\n      pop\n      pop\n      pop\n        /* \"EtherStore.sol\":859:873  _weiToWithdraw */\n      dup1\n        /* \"EtherStore.sol\":835:843  balances */\n      0x02\n        /* \"EtherStore.sol\":835:855  balances[msg.sender] */\n      0x00\n        /* \"EtherStore.sol\":844:854  msg.sender */\n      caller\n        /* \"EtherStore.sol\":835:855  balances[msg.sender] */\n      0xffffffffffffffffffffffffffffffffffffffff\n      and\n      0xffffffffffffffffffffffffffffffffffffffff\n      and\n      dup2\n      mstore\n      0x20\n      add\n      swap1\n      dup2\n      mstore\n      0x20\n      add\n      0x00\n      keccak256\n      0x00\n        /* \"EtherStore.sol\":835:873  balances[msg.sender] -= _weiToWithdraw */\n      dup3\n      dup3\n      sload\n      sub\n      swap3\n      pop\n      pop\n      dup2\n      swap1\n      sstore\n      pop\n        /* \"EtherStore.sol\":915:918  now */\n      timestamp\n        /* \"EtherStore.sol\":884:900  lastWithdrawTime */\n      0x01\n        /* \"EtherStore.sol\":884:912  lastWithdrawTime[msg.sender] */\n      0x00\n        /* \"EtherStore.sol\":901:911  msg.sender */\n      caller\n        /* \"EtherStore.sol\":884:912  lastWithdrawTime[msg.sender] */\n      0xffffffffffffffffffffffffffffffffffffffff\n      and\n      0xffffffffffffffffffffffffffffffffffffffff\n      and\n      dup2\n      mstore\n      0x20\n      add\n      swap1\n      dup2\n      mstore\n      0x20\n      add\n      0x00\n      keccak256\n        /* \"EtherStore.sol\":884:918  lastWithdrawTime[msg.sender] = now */\n      dup2\n      swap1\n      sstore\n      pop\n        /* \"EtherStore.sol\":932:944  bool success */\n      0x00\n        /* \"EtherStore.sol\":949:959  msg.sender */\n      caller\n        /* \"EtherStore.sol\":949:964  msg.sender.call */\n      0xffffffffffffffffffffffffffffffffffffffff\n      and\n        /* \"EtherStore.sol\":972:980  balances */\n      0x02\n        /* \"EtherStore.sol\":972:992  balances[msg.sender] */\n      0x00\n        /* \"EtherStore.sol\":981:991  msg.sender */\n      caller\n        /* \"EtherStore.sol\":972:992  balances[msg.sender] */\n      0xffffffffffffffffffffffffffffffffffffffff\n      and\n      0xffffffffffffffffffffffffffffffffffffffff\n      and\n      dup2\n      mstore\n      0x20\n      add\n      swap1\n      dup2\n      mstore\n      0x20\n      add\n      0x00\n      keccak256\n      sload\n        /* \"EtherStore.sol\":949:997  msg.sender.call{value: balances[msg.sender]}(\"\") */\n      mload(0x40)\n      dup1\n      0x00\n      add\n      swap1\n      pop\n      0x00\n      mload(0x40)\n      dup1\n      dup4\n      sub\n      dup2\n      dup6\n      dup8\n      gas\n      call\n      swap3\n      pop\n      pop\n      pop\n      returndatasize\n      dup1\n      0x00\n      dup2\n      eq\n      tag_33\n      jumpi\n      mload(0x40)\n      swap2\n      pop\n      and(add(returndatasize, 0x3f), not(0x1f))\n      dup3\n      add\n      0x40\n      mstore\n      returndatasize\n      dup3\n      mstore\n      returndatasize\n      0x00\n      0x20\n      dup5\n      add\n      returndatacopy\n      jump(tag_32)\n    tag_33:\n      0x60\n      swap2\n      pop\n    tag_32:\n      pop\n        /* \"EtherStore.sol\":931:997  (bool success,) = msg.sender.call{value: balances[msg.sender]}(\"\") */\n      pop\n      swap1\n      pop\n        /* \"EtherStore.sol\":1016:1023  success */\n      dup1\n        /* \"EtherStore.sol\":1008:1058  require(success, \"receiver rejected ETH transfer\") */\n      tag_34\n      jumpi\n      mload(0x40)\n      0x08c379a000000000000000000000000000000000000000000000000000000000\n      dup2\n      mstore\n      0x04\n      add\n      dup1\n      dup1\n      0x20\n      add\n      dup3\n      dup2\n      sub\n      dup3\n      mstore\n      0x1e\n      dup2\n      mstore\n      0x20\n      add\n      dup1\n      0x72656365697665722072656a656374656420455448207472616e736665720000\n      dup2\n      mstore\n      pop\n      0x20\n      add\n      swap2\n      pop\n      pop\n      mload(0x40)\n      dup1\n      swap2\n      sub\n      swap1\n      revert\n    tag_34:\n        /* \"EtherStore.sol\":447:1066  function withdrawFunds (uint256 _weiToWithdraw) public {\r... */\n      pop\n      pop\n      jump\t// out\n        /* \"EtherStore.sol\":194:237  mapping(address => uint256) public balances */\n    tag_18:\n      mstore(0x20, 0x02)\n      dup1\n      0x00\n      mstore\n      keccak256(0x00, 0x40)\n      0x00\n      swap2\n      pop\n      swap1\n      pop\n      sload\n      dup2\n      jump\t// out\n        /* \"EtherStore.sol\":89:129  uint256 public withdrawalLimit = 1 ether */\n    tag_21:\n      sload(0x00)\n      dup2\n      jump\t// out\n        /* \"EtherStore.sol\":246:439  function depositFunds() public payable {\r... */\n    tag_23:\n        /* \"EtherStore.sol\":318:327  msg.value */\n      callvalue\n        /* \"EtherStore.sol\":294:302  balances */\n      0x02\n        /* \"EtherStore.sol\":294:314  balances[msg.sender] */\n      0x00\n        /* \"EtherStore.sol\":303:313  msg.sender */\n      caller\n        /* \"EtherStore.sol\":294:314  balances[msg.sender] */\n      0xffffffffffffffffffffffffffffffffffffffff\n      and\n      0xffffffffffffffffffffffffffffffffffffffff\n      and\n      dup2\n      mstore\n      0x20\n      add\n      swap1\n      dup2\n      mstore\n      0x20\n      add\n      0x00\n      keccak256\n      0x00\n        /* \"EtherStore.sol\":294:327  balances[msg.sender] += msg.value */\n      dup3\n      dup3\n      sload\n      add\n      swap3\n      pop\n      pop\n      dup2\n      swap1\n      sstore\n      pop\n        /* \"EtherStore.sol\":337:346  bool sent */\n      0x00\n        /* \"EtherStore.sol\":352:362  msg.sender */\n      caller\n        /* \"EtherStore.sol\":352:367  msg.sender.call */\n      0xffffffffffffffffffffffffffffffffffffffff\n      and\n        /* \"EtherStore.sol\":375:382  1 ether */\n      0x0de0b6b3a7640000\n        /* \"EtherStore.sol\":352:387  msg.sender.call{value: 1 ether}(\"\") */\n      mload(0x40)\n      dup1\n      0x00\n      add\n      swap1\n      pop\n      0x00\n      mload(0x40)\n      dup1\n      dup4\n      sub\n      dup2\n      dup6\n      dup8\n      gas\n      call\n      swap3\n      pop\n      pop\n      pop\n      returndatasize\n      dup1\n      0x00\n      dup2\n      eq\n      tag_38\n      jumpi\n      mload(0x40)\n      swap2\n      pop\n      and(add(returndatasize, 0x3f), not(0x1f))\n      dup3\n      add\n      0x40\n      mstore\n      returndatasize\n      dup3\n      mstore\n      returndatasize\n      0x00\n      0x20\n      dup5\n      add\n      returndatacopy\n      jump(tag_37)\n    tag_38:\n      0x60\n      swap2\n      pop\n    tag_37:\n      pop\n        /* \"EtherStore.sol\":336:387  (bool sent, ) = msg.sender.call{value: 1 ether}(\"\") */\n      pop\n      swap1\n      pop\n        /* \"EtherStore.sol\":404:408  sent */\n      dup1\n        /* \"EtherStore.sol\":396:433  require(sent, \"Failed to send Ether\") */\n      tag_39\n      jumpi\n      mload(0x40)\n      0x08c379a000000000000000000000000000000000000000000000000000000000\n      dup2\n      mstore\n      0x04\n      add\n      dup1\n      dup1\n      0x20\n      add\n      dup3\n      dup2\n      sub\n      dup3\n      mstore\n      0x14\n      dup2\n      mstore\n      0x20\n      add\n      dup1\n      0x4661696c656420746f2073656e64204574686572000000000000000000000000\n      dup2\n      mstore\n      pop\n      0x20\n      add\n      swap2\n      pop\n      pop\n      mload(0x40)\n      dup1\n      swap2\n      sub\n      swap1\n      revert\n    tag_39:\n        /* \"EtherStore.sol\":246:439  function depositFunds() public payable {\r... */\n      pop\n      jump\t// out\n\n    auxdata: 0xa2646970667358221220c314b5dc379f4c6fdec0383bb21952de1c41681cf1260c312a0401ef0f74b27464736f6c634300060c0033\n}\n",
				"bytecode": {
					"linkReferences": {},
					"object": "6080604052670de0b6b3a764000060005534801561001c57600080fd5b5061062a8061002c6000396000f3fe60806040526004361061004a5760003560e01c80631031ec311461004f578063155dd5ee146100b457806327e235e3146100ef5780637ddfe78d14610154578063e2c41dbc1461017f575b600080fd5b34801561005b57600080fd5b5061009e6004803603602081101561007257600080fd5b81019080803573ffffffffffffffffffffffffffffffffffffffff169060200190929190505050610189565b6040518082815260200191505060405180910390f35b3480156100c057600080fd5b506100ed600480360360208110156100d757600080fd5b81019080803590602001909291905050506101a1565b005b3480156100fb57600080fd5b5061013e6004803603602081101561011257600080fd5b81019080803573ffffffffffffffffffffffffffffffffffffffff1690602001909291905050506104a2565b6040518082815260200191505060405180910390f35b34801561016057600080fd5b506101696104ba565b6040518082815260200191505060405180910390f35b6101876104c0565b005b60016020528060005260406000206000915090505481565b80600260003373ffffffffffffffffffffffffffffffffffffffff1673ffffffffffffffffffffffffffffffffffffffff1681526020019081526020016000205410156101ed57600080fd5b6000548111156101fc57600080fd5b62093a80600160003373ffffffffffffffffffffffffffffffffffffffff1673ffffffffffffffffffffffffffffffffffffffff168152602001908152602001600020540142101561024d57600080fd5b3373ffffffffffffffffffffffffffffffffffffffff16600260003373ffffffffffffffffffffffffffffffffffffffff1673ffffffffffffffffffffffffffffffffffffffff1681526020019081526020016000205460405180600001905060006040518083038185875af1925050503d80600081146102ea576040519150601f19603f3d011682016040523d82523d6000602084013e6102ef565b606091505b50505080600260003373ffffffffffffffffffffffffffffffffffffffff1673ffffffffffffffffffffffffffffffffffffffff1681526020019081526020016000206000828254039250508190555042600160003373ffffffffffffffffffffffffffffffffffffffff1673ffffffffffffffffffffffffffffffffffffffff1681526020019081526020016000208190555060003373ffffffffffffffffffffffffffffffffffffffff16600260003373ffffffffffffffffffffffffffffffffffffffff1673ffffffffffffffffffffffffffffffffffffffff1681526020019081526020016000205460405180600001905060006040518083038185875af1925050503d8060008114610422576040519150601f19603f3d011682016040523d82523d6000602084013e610427565b606091505b505090508061049e576040517f08c379a000000000000000000000000000000000000000000000000000000000815260040180806020018281038252601e8152602001807f72656365697665722072656a656374656420455448207472616e73666572000081525060200191505060405180910390fd5b5050565b60026020528060005260406000206000915090505481565b60005481565b34600260003373ffffffffffffffffffffffffffffffffffffffff1673ffffffffffffffffffffffffffffffffffffffff1681526020019081526020016000206000828254019250508190555060003373ffffffffffffffffffffffffffffffffffffffff16670de0b6b3a764000060405180600001905060006040518083038185875af1925050503d8060008114610575576040519150601f19603f3d011682016040523d82523d6000602084013e61057a565b606091505b50509050806105f1576040517f08c379a00000000000000000000000000000000000000000000000000000000081526004018080602001828103825260148152602001807f4661696c656420746f2073656e6420457468657200000000000000000000000081525060200191505060405180910390fd5b5056fea2646970667358221220c314b5dc379f4c6fdec0383bb21952de1c41681cf1260c312a0401ef0f74b27464736f6c634300060c0033",
					"opcodes": "PUSH1 0x80 PUSH1 0x40 MSTORE PUSH8 0xDE0B6B3A7640000 PUSH1 0x0 SSTORE CALLVALUE DUP1 ISZERO PUSH2 0x1C JUMPI PUSH1 0x0 DUP1 REVERT JUMPDEST POP PUSH2 0x62A DUP1 PUSH2 0x2C PUSH1 0x0 CODECOPY PUSH1 0x0 RETURN INVALID PUSH1 0x80 PUSH1 0x40 MSTORE PUSH1 0x4 CALLDATASIZE LT PUSH2 0x4A JUMPI PUSH1 0x0 CALLDATALOAD PUSH1 0xE0 SHR DUP1 PUSH4 0x1031EC31 EQ PUSH2 0x4F JUMPI DUP1 PUSH4 0x155DD5EE EQ PUSH2 0xB4 JUMPI DUP1 PUSH4 0x27E235E3 EQ PUSH2 0xEF JUMPI DUP1 PUSH4 0x7DDFE78D EQ PUSH2 0x154 JUMPI DUP1 PUSH4 0xE2C41DBC EQ PUSH2 0x17F JUMPI JUMPDEST PUSH1 0x0 DUP1 REVERT JUMPDEST CALLVALUE DUP1 ISZERO PUSH2 0x5B JUMPI PUSH1 0x0 DUP1 REVERT JUMPDEST POP PUSH2 0x9E PUSH1 0x4 DUP1 CALLDATASIZE SUB PUSH1 0x20 DUP2 LT ISZERO PUSH2 0x72 JUMPI PUSH1 0x0 DUP1 REVERT JUMPDEST DUP2 ADD SWAP1 DUP1 DUP1 CALLDATALOAD PUSH20 0xFFFFFFFFFFFFFFFFFFFFFFFFFFFFFFFFFFFFFFFF AND SWAP1 PUSH1 0x20 ADD SWAP1 SWAP3 SWAP2 SWAP1 POP POP POP PUSH2 0x189 JUMP JUMPDEST PUSH1 0x40 MLOAD DUP1 DUP3 DUP2 MSTORE PUSH1 0x20 ADD SWAP2 POP POP PUSH1 0x40 MLOAD DUP1 SWAP2 SUB SWAP1 RETURN JUMPDEST CALLVALUE DUP1 ISZERO PUSH2 0xC0 JUMPI PUSH1 0x0 DUP1 REVERT JUMPDEST POP PUSH2 0xED PUSH1 0x4 DUP1 CALLDATASIZE SUB PUSH1 0x20 DUP2 LT ISZERO PUSH2 0xD7 JUMPI PUSH1 0x0 DUP1 REVERT JUMPDEST DUP2 ADD SWAP1 DUP1 DUP1 CALLDATALOAD SWAP1 PUSH1 0x20 ADD SWAP1 SWAP3 SWAP2 SWAP1 POP POP POP PUSH2 0x1A1 JUMP JUMPDEST STOP JUMPDEST CALLVALUE DUP1 ISZERO PUSH2 0xFB JUMPI PUSH1 0x0 DUP1 REVERT JUMPDEST POP PUSH2 0x13E PUSH1 0x4 DUP1 CALLDATASIZE SUB PUSH1 0x20 DUP2 LT ISZERO PUSH2 0x112 JUMPI PUSH1 0x0 DUP1 REVERT JUMPDEST DUP2 ADD SWAP1 DUP1 DUP1 CALLDATALOAD PUSH20 0xFFFFFFFFFFFFFFFFFFFFFFFFFFFFFFFFFFFFFFFF AND SWAP1 PUSH1 0x20 ADD SWAP1 SWAP3 SWAP2 SWAP1 POP POP POP PUSH2 0x4A2 JUMP JUMPDEST PUSH1 0x40 MLOAD DUP1 DUP3 DUP2 MSTORE PUSH1 0x20 ADD SWAP2 POP POP PUSH1 0x40 MLOAD DUP1 SWAP2 SUB SWAP1 RETURN JUMPDEST CALLVALUE DUP1 ISZERO PUSH2 0x160 JUMPI PUSH1 0x0 DUP1 REVERT JUMPDEST POP PUSH2 0x169 PUSH2 0x4BA JUMP JUMPDEST PUSH1 0x40 MLOAD DUP1 DUP3 DUP2 MSTORE PUSH1 0x20 ADD SWAP2 POP POP PUSH1 0x40 MLOAD DUP1 SWAP2 SUB SWAP1 RETURN JUMPDEST PUSH2 0x187 PUSH2 0x4C0 JUMP JUMPDEST STOP JUMPDEST PUSH1 0x1 PUSH1 0x20 MSTORE DUP1 PUSH1 0x0 MSTORE PUSH1 0x40 PUSH1 0x0 KECCAK256 PUSH1 0x0 SWAP2 POP SWAP1 POP SLOAD DUP2 JUMP JUMPDEST DUP1 PUSH1 0x2 PUSH1 0x0 CALLER PUSH20 0xFFFFFFFFFFFFFFFFFFFFFFFFFFFFFFFFFFFFFFFF AND PUSH20 0xFFFFFFFFFFFFFFFFFFFFFFFFFFFFFFFFFFFFFFFF AND DUP2 MSTORE PUSH1 0x20 ADD SWAP1 DUP2 MSTORE PUSH1 0x20 ADD PUSH1 0x0 KECCAK256 SLOAD LT ISZERO PUSH2 0x1ED JUMPI PUSH1 0x0 DUP1 REVERT JUMPDEST PUSH1 0x0 SLOAD DUP2 GT ISZERO PUSH2 0x1FC JUMPI PUSH1 0x0 DUP1 REVERT JUMPDEST PUSH3 0x93A80 PUSH1 0x1 PUSH1 0x0 CALLER PUSH20 0xFFFFFFFFFFFFFFFFFFFFFFFFFFFFFFFFFFFFFFFF AND PUSH20 0xFFFFFFFFFFFFFFFFFFFFFFFFFFFFFFFFFFFFFFFF AND DUP2 MSTORE PUSH1 0x20 ADD SWAP1 DUP2 MSTORE PUSH1 0x20 ADD PUSH1 0x0 KECCAK256 SLOAD ADD TIMESTAMP LT ISZERO PUSH2 0x24D JUMPI PUSH1 0x0 DUP1 REVERT JUMPDEST CALLER PUSH20 0xFFFFFFFFFFFFFFFFFFFFFFFFFFFFFFFFFFFFFFFF AND PUSH1 0x2 PUSH1 0x0 CALLER PUSH20 0xFFFFFFFFFFFFFFFFFFFFFFFFFFFFFFFFFFFFFFFF AND PUSH20 0xFFFFFFFFFFFFFFFFFFFFFFFFFFFFFFFFFFFFFFFF AND DUP2 MSTORE PUSH1 0x20 ADD SWAP1 DUP2 MSTORE PUSH1 0x20 ADD PUSH1 0x0 KECCAK256 SLOAD PUSH1 0x40 MLOAD DUP1 PUSH1 0x0 ADD SWAP1 POP PUSH1 0x0 PUSH1 0x40 MLOAD DUP1 DUP4 SUB DUP2 DUP6 DUP8 GAS CALL SWAP3 POP POP POP RETURNDATASIZE DUP1 PUSH1 0x0 DUP2 EQ PUSH2 0x2EA JUMPI PUSH1 0x40 MLOAD SWAP2 POP PUSH1 0x1F NOT PUSH1 0x3F RETURNDATASIZE ADD AND DUP3 ADD PUSH1 0x40 MSTORE RETURNDATASIZE DUP3 MSTORE RETURNDATASIZE PUSH1 0x0 PUSH1 0x20 DUP5 ADD RETURNDATACOPY PUSH2 0x2EF JUMP JUMPDEST PUSH1 0x60 SWAP2 POP JUMPDEST POP POP POP DUP1 PUSH1 0x2 PUSH1 0x0 CALLER PUSH20 0xFFFFFFFFFFFFFFFFFFFFFFFFFFFFFFFFFFFFFFFF AND PUSH20 0xFFFFFFFFFFFFFFFFFFFFFFFFFFFFFFFFFFFFFFFF AND DUP2 MSTORE PUSH1 0x20 ADD SWAP1 DUP2 MSTORE PUSH1 0x20 ADD PUSH1 0x0 KECCAK256 PUSH1 0x0 DUP3 DUP3 SLOAD SUB SWAP3 POP POP DUP2 SWAP1 SSTORE POP TIMESTAMP PUSH1 0x1 PUSH1 0x0 CALLER PUSH20 0xFFFFFFFFFFFFFFFFFFFFFFFFFFFFFFFFFFFFFFFF AND PUSH20 0xFFFFFFFFFFFFFFFFFFFFFFFFFFFFFFFFFFFFFFFF AND DUP2 MSTORE PUSH1 0x20 ADD SWAP1 DUP2 MSTORE PUSH1 0x20 ADD PUSH1 0x0 KECCAK256 DUP2 SWAP1 SSTORE POP PUSH1 0x0 CALLER PUSH20 0xFFFFFFFFFFFFFFFFFFFFFFFFFFFFFFFFFFFFFFFF AND PUSH1 0x2 PUSH1 0x0 CALLER PUSH20 0xFFFFFFFFFFFFFFFFFFFFFFFFFFFFFFFFFFFFFFFF AND PUSH20 0xFFFFFFFFFFFFFFFFFFFFFFFFFFFFFFFFFFFFFFFF AND DUP2 MSTORE PUSH1 0x20 ADD SWAP1 DUP2 MSTORE PUSH1 0x20 ADD PUSH1 0x0 KECCAK256 SLOAD PUSH1 0x40 MLOAD DUP1 PUSH1 0x0 ADD SWAP1 POP PUSH1 0x0 PUSH1 0x40 MLOAD DUP1 DUP4 SUB DUP2 DUP6 DUP8 GAS CALL SWAP3 POP POP POP RETURNDATASIZE DUP1 PUSH1 0x0 DUP2 EQ PUSH2 0x422 JUMPI PUSH1 0x40 MLOAD SWAP2 POP PUSH1 0x1F NOT PUSH1 0x3F RETURNDATASIZE ADD AND DUP3 ADD PUSH1 0x40 MSTORE RETURNDATASIZE DUP3 MSTORE RETURNDATASIZE PUSH1 0x0 PUSH1 0x20 DUP5 ADD RETURNDATACOPY PUSH2 0x427 JUMP JUMPDEST PUSH1 0x60 SWAP2 POP JUMPDEST POP POP SWAP1 POP DUP1 PUSH2 0x49E JUMPI PUSH1 0x40 MLOAD PUSH32 0x8C379A000000000000000000000000000000000000000000000000000000000 DUP2 MSTORE PUSH1 0x4 ADD DUP1 DUP1 PUSH1 0x20 ADD DUP3 DUP2 SUB DUP3 MSTORE PUSH1 0x1E DUP2 MSTORE PUSH1 0x20 ADD DUP1 PUSH32 0x72656365697665722072656A656374656420455448207472616E736665720000 DUP2 MSTORE POP PUSH1 0x20 ADD SWAP2 POP POP PUSH1 0x40 MLOAD DUP1 SWAP2 SUB SWAP1 REVERT JUMPDEST POP POP JUMP JUMPDEST PUSH1 0x2 PUSH1 0x20 MSTORE DUP1 PUSH1 0x0 MSTORE PUSH1 0x40 PUSH1 0x0 KECCAK256 PUSH1 0x0 SWAP2 POP SWAP1 POP SLOAD DUP2 JUMP JUMPDEST PUSH1 0x0 SLOAD DUP2 JUMP JUMPDEST CALLVALUE PUSH1 0x2 PUSH1 0x0 CALLER PUSH20 0xFFFFFFFFFFFFFFFFFFFFFFFFFFFFFFFFFFFFFFFF AND PUSH20 0xFFFFFFFFFFFFFFFFFFFFFFFFFFFFFFFFFFFFFFFF AND DUP2 MSTORE PUSH1 0x20 ADD SWAP1 DUP2 MSTORE PUSH1 0x20 ADD PUSH1 0x0 KECCAK256 PUSH1 0x0 DUP3 DUP3 SLOAD ADD SWAP3 POP POP DUP2 SWAP1 SSTORE POP PUSH1 0x0 CALLER PUSH20 0xFFFFFFFFFFFFFFFFFFFFFFFFFFFFFFFFFFFFFFFF AND PUSH8 0xDE0B6B3A7640000 PUSH1 0x40 MLOAD DUP1 PUSH1 0x0 ADD SWAP1 POP PUSH1 0x0 PUSH1 0x40 MLOAD DUP1 DUP4 SUB DUP2 DUP6 DUP8 GAS CALL SWAP3 POP POP POP RETURNDATASIZE DUP1 PUSH1 0x0 DUP2 EQ PUSH2 0x575 JUMPI PUSH1 0x40 MLOAD SWAP2 POP PUSH1 0x1F NOT PUSH1 0x3F RETURNDATASIZE ADD AND DUP3 ADD PUSH1 0x40 MSTORE RETURNDATASIZE DUP3 MSTORE RETURNDATASIZE PUSH1 0x0 PUSH1 0x20 DUP5 ADD RETURNDATACOPY PUSH2 0x57A JUMP JUMPDEST PUSH1 0x60 SWAP2 POP JUMPDEST POP POP SWAP1 POP DUP1 PUSH2 0x5F1 JUMPI PUSH1 0x40 MLOAD PUSH32 0x8C379A000000000000000000000000000000000000000000000000000000000 DUP2 MSTORE PUSH1 0x4 ADD DUP1 DUP1 PUSH1 0x20 ADD DUP3 DUP2 SUB DUP3 MSTORE PUSH1 0x14 DUP2 MSTORE PUSH1 0x20 ADD DUP1 PUSH32 0x4661696C656420746F2073656E64204574686572000000000000000000000000 DUP2 MSTORE POP PUSH1 0x20 ADD SWAP2 POP POP PUSH1 0x40 MLOAD DUP1 SWAP2 SUB SWAP1 REVERT JUMPDEST POP JUMP INVALID LOG2 PUSH5 0x6970667358 0x22 SLT KECCAK256 0xC3 EQ 0xB5 0xDC CALLDATACOPY SWAP16 0x4C PUSH16 0xDEC0383BB21952DE1C41681CF1260C31 0x2A DIV ADD 0xEF 0xF PUSH21 0xB27464736F6C634300060C00330000000000000000 "
				},
				"gasEstimates": {
					"creation": {
						"codeDepositCost": "315600",
						"executionCost": "20361",
						"totalCost": "335961"
					},
					"external": {
						"balances(address)": "1191",
						"depositFunds()": "infinite",
						"lastWithdrawTime(address)": "1147",
						"withdrawFunds(uint256)": "infinite",
						"withdrawalLimit()": "1049"
					}
				},
				"methodIdentifiers": {
					"balances(address)": "27e235e3",
					"depositFunds()": "e2c41dbc",
					"lastWithdrawTime(address)": "1031ec31",
					"withdrawFunds(uint256)": "155dd5ee",
					"withdrawalLimit()": "7ddfe78d"
				}
			},
			"storageLayout": {
				"storage": [
					{
						"astId": 4,
						"contract": "EtherStore.sol:EtherStore",
						"label": "withdrawalLimit",
						"offset": 0,
						"slot": "0",
						"type": "t_uint256"
					},
					{
						"astId": 8,
						"contract": "EtherStore.sol:EtherStore",
						"label": "lastWithdrawTime",
						"offset": 0,
						"slot": "1",
						"type": "t_mapping(t_address,t_uint256)"
					},
					{
						"astId": 12,
						"contract": "EtherStore.sol:EtherStore",
						"label": "balances",
						"offset": 0,
						"slot": "2",
						"type": "t_mapping(t_address,t_uint256)"
					}
				],
				"types": {
					"t_address": {
						"encoding": "inplace",
						"label": "address",
						"numberOfBytes": "20"
					},
					"t_mapping(t_address,t_uint256)": {
						"encoding": "mapping",
						"key": "t_address",
						"label": "mapping(address => uint256)",
						"numberOfBytes": "32",
						"value": "t_uint256"
					},
					"t_uint256": {
						"encoding": "inplace",
						"label": "uint256",
						"numberOfBytes": "32"
					}
				}
			},
			"userdoc": {
				"kind": "user",
				"methods": {},
				"version": 1
			}
		}
	}
}